:020000040800F2
:10000000780F00200501000881370008D52E000870
:10001000CD3600087D080008A95C0008000000003B
:10002000000000000000000000000000553900083A
:100030005B0900080000000093370008E159000840
:100040001F0100081F0100081F0100081F01000810
:100050001F0100081F0100081F0100081F01000800
:100060001F0100081F0100081F01000825090008E2
:100070001F0100081F0100081F0100081F010008E0
:100080001F0100081F0100081F0100081F010008D0
:100090001F0100081F0100081F0100081F010008C0
:1000A0001F0100081F0100081F0100081F010008B0
:1000B000495A00081F0100081F0100081F0100081D
:1000C0001F0100081F0100081F0100081F01000890
:1000D0001F0100089D5C00081F0100081F010008A7
:1000E0001F0100081F0100081F010008DFF810D0E1
:1000F00000F00AFB00480047C1680008AFF3008029
:10010000780F00200648804706480047FEE7FEE7D4
:10011000FEE7FEE7FEE7FEE7FEE7FEE7FEE7FEE7B7
:10012000455A0008ED000008202A04DB203A21FA95
:1001300002F00021704721FA02F3D040C2F1200200
:100140009140084319467047D2B201E000F8012BF4
:10015000491EFBD270470022F6E710B513460A4647
:1001600004461946FFF7F0FF204610BD2DE9FE4F6B
:10017000804681EA0300C00F0C46009021F0004148
:1001800023F00045B8EB0200A94105D240462146C4
:1001900090461C460B46024623F00040104347D0D1
:1001A000270DC7F30A00C3F30A510290401A0190C9
:1001B00040286BDAC3F3130040F4801B009892468A
:1001C00020B10023D2EB030A63EB0B0B01985946D5
:1001D000C0F14002504600F000FA06460D46504677
:1001E0005946019A00F008FA10EB0800614100241A
:1001F00087EA115284EAE7731A4340D0009A62B347
:10020000019A012A4FEA075215DC001B61EB02013B
:100210004FF0004202EA0752CDE90042001C41F5CE
:10022000801132462B4600F008FA03B0BDE8F08F8B
:1002300040462146F9E7001B61EB0201001C41F535
:10024000801300185B412018A2F5001747EB03014B
:1002500040EAD570B6196D4111E06D084FEA3606D7
:1002600045EAC0754FEA0752001B61EB0201001C12
:1002700041F5801149084FEA3000001951413246DA
:100280002B4603B0BDE8F04F00F0C8B9009801223A
:1002900040000023D0EB020263EBE073009821469C
:1002A0004FEAE074B8EB000061EB0401E9E783F08A
:1002B00000435BE781F0004158E72DE9FE4F81EAFA
:1002C000030404F0004421F0004100944FF0000BBF
:1002D00023F0004350EA01045ED052EA03045BD0ED
:1002E000C3F30A54C1F30A552C44A4F2F334019425
:1002F000A0FB0254C1F3130141F48011C3F31303B3
:1003000043F4801301FB024400FB034E840A970A66
:1003100044EA815447EA8357A4FB076802958D0A93
:1003200005FB07854FEA932C04FB0C542705029D1F
:100330004FEA065847EA1637B5EB08056EEB070C8F
:10034000870E920E47EA811742EA8312A7FB020149
:10035000B6EB0B0164EB00042B0D43EA0C335E1883
:1003600044EB1C50DA465146E7FB0201C5F3130487
:100370004FEA0B3343EA14534FEA0432019C43EA39
:100380000603A4F10C040294009CCDE900B400F033
:1003900054F903B0BDE8F08F00200146F9E72DE9DC
:1003A000F04D81EA030404F0004B21F000451446AF
:1003B0004FF0000A23F0004150EA050220D054EA31
:1003C00001021DD0C5F30A570246C5F31303C1F35A
:1003D0001300C1F30A5640F4801543F48013A7EBD1
:1003E0000608101BD64608F2FD3873EB050002D351
:1003F00008F1010801E092185B41B8F1000F03DA3F
:1004000000200146BDE8F08D00204FF48011064623
:1004100084460EE0171B73EB050705D3121B63EB35
:10042000050306434CEA010C49084FEA30009218D4
:100430005B4150EA0107EDD152EA030012D082EA93
:10044000040083EA0501084305D0101BAB4106D226
:100450000122002306E000224FF0004302E06FF08B
:10046000010253101AEB06004CEB085110EB0A0086
:1004700041EB0B01BDE8F04D00F0D0B80EB5C10F57
:1004800080EAE0700844CA07002140F233438DE857
:100490000E000A460B4600F0D0F803B000BD0EB5C2
:1004A00040F2334102910021CDE900110A460B468A
:1004B00000F0C3F803B000BDC1F30A5210B5C1F398
:1004C000130140F2FF3341F480119A4201DA002017
:1004D00010BD40F233439A42A2F2334203DC52424F
:1004E000FFF722FE10BD904010BD000030B5041E85
:1004F00071F1000404DB4FF00044404264EB010161
:10050000141E73F1000405DB1C464FF000435242F9
:1005100063EB04038B4208BF824230BD30B5041E3A
:1005200071F1000404DB4FF00044404264EB010130
:10053000141E73F1000405DB1C464FF000435242C9
:1005400063EB0403994208BF904230BD30B50B46BF
:10055000014600202022012409E021FA02F59D42F3
:1005600005D303FA02F5491B04FA02F52844151EC7
:10057000A2F10102F1DC30BD2DE9F05F054600205B
:1005800092469B4688460646814640241BE0284604
:10059000414647462246FFF7C7FD53465A46C01A12
:1005A000914110D311461846224600F016F82D1A34
:1005B00067EB01084F4622460120002100F00DF8AC
:1005C00017EB00094E41201EA4F10104DFDC484670
:1005D00031462A464346BDE8F09F202A04DB203AF4
:1005E00000FA02F1002070479140C2F1200320FA86
:1005F00003F3194390407047202A06DBCB17203ABB
:1006000041FA02F043EAE07306E041FA02F3D04017
:10061000C2F12002914008431946704710B5141EDC
:1006200073F1000408DA401C41F1000192185B41AB
:100630001A4301D120F0010010BD2DE9F04D924682
:100640009B4611B1B1FA81F202E0B0FA80F2203299
:100650009046FFF7C2FF04460F4640EA0A0041EA0F
:100660000B0153465A46084313D0114653EA010082
:1006700019D0C8F140025046FFF756FD05460E4618
:10068000504659464246FFF7A8FF084305D00120CF
:1006900004E020463946BDE8F08D0020054346EAD7
:1006A000E0762C4337430A986305E40AA0EB080080
:1006B0000022FD0A44EA47540A3002D500200146D0
:1006C000E9E7010510196941DDE9084500196941AB
:1006D000BDE8F04DA2E7C1F30A52C1F3130140F2A5
:1006E000FF3341F480119A4202DA0020014670473C
:1006F00040F233439A42A2F2334202DC5242FFF705
:1007000013BDFFF76ABF0000064C074D06E0E06826
:1007100040F0010394E8070098471034AC42F6D348
:10072000FFF7E8FC548A0008748A000870B5044694
:1007300000688168C943C9071CD1816821F00101A3
:10074000816001F0D7FC05460FE000BF01F0D2FC4C
:10075000401B022809D9A06A40F01000A062E06A9C
:1007600040F00100E062012070BD20688068C04355
:10077000C007EBD0002070BD10B50146406A826A08
:1007800012F0500F05D0006A026BBDE81040084619
:100790001047816A41F40071816201688968C1F380
:1007A000424107290CD1017B51B9816A21F4807142
:1007B0008162816AC90403D4816A41F001018162C6
:1007C00000F0D0FF10BD10B5406A816A41F04001D1
:1007D0008162C16A41F00401C16200F0C5FF10BD31
:1007E00010B5406A00F0BFFF10BD0000F8B500264C
:1007F0000446009600688168C943C90728D081680B
:1008000041F001018160134813490068B0FBF1F029
:1008100000E0401E00900028FBD101F06BFC054673
:1008200011E000BF01F066FC401B02280BD9A06A52
:1008300040F01000A062E06A40F00100E06284F83D
:1008400024600120F8BD20688068C043C007E9D15A
:100850000020F8BD3000002040420F0010B50146D6
:100860000A22054801F058F8012001F085FABDE898
:100870001040014801F0D6B890080020FEE70000C3
:1008800070B50C4C05460022D4E902011346FFF76F
:100890002DFE0CD02846FFF702FED4E90223FFF715
:1008A0000CFDD4E90423BDE87040FFF75FBC0020D5
:1008B000014670BDE8010020164A10B5D17807281E
:1008C0000DD2DFE800F00C0C0C0C0C041F00032907
:1008D00006D201F10101D1704FF00100107110BD7D
:1008E000FDD10D48006800F00BFB012006F026F852
:1008F0000948002150380A4AC0E902110749C0E9F5
:10090000041210BD0029FCD1BDE810400A2006F0F9
:1009100015B8000014000020F0000020A323B9FC4B
:10092000FF87C340014801F017B90000C00800204C
:1009300030B590F840500124AC40C56B6C60046841
:1009400063604368102B036803D099600068C2603D
:1009500030BD9A600068C16030BD70472DE9FE4F20
:100960006D4C6E4B6E4D4FF0000B42F210764FF017
:100970002E0A4FF47A774FF064084FF00A09082ADC
:1009800044D0062A7ED12246FFF7F0FB0022654BB9
:10099000FFF793FCFFF790FDB0FBF5F130318DF8D8
:1009A0000010B0FBF5F105FB1101B1FBF6F13031A0
:1009B0008DF80110B0FBF6F106FB1101B1FBF7F168
:1009C0008DF802A030318DF80310B0FBF7F107FB72
:1009D00011024146B2FBF1F230328DF80420B0FB37
:1009E000F8F208FB12024946B2FBF1F230328DF800
:1009F0000520B0FBF9F209FB1200002430308DF81D
:100A000006006F46385D302871D16CE02246FFF752
:100A1000ADFB0022434BFFF750FCFFF74DFD424971
:100A20000024B0FBF1F230328DF80020B0FBF1F27F
:100A300001FB12023D498DF804A0B2FBF1F2303205
:100A40008DF80120B0FBF1F201FB1201B1FBF5F1D1
:100A500030318DF80210B0FBF5F105FB1101B1FB4F
:100A6000F6F130318DF80310B0FBF6F106FB110101
:100A7000B1FBF7F130318DF80510B0FBF7F107FB52
:100A8000110200E045E04146B2FBF1F230328DF850
:100A90000620B0FBF8F208FB12024946B2FBF1F265
:100AA00030328DF80720B0FBF9F209FB120030302C
:100AB0008DF808006F46385D302803D1641CE4B21D
:100AC000032CF8D3C4F10900C6B20025701C05F050
:100AD000FFFE05E0395D641C41556D1CE4B2EDB2CA
:100AE000B542F7D313E0641C14F0FF048AD0C4F1BC
:100AF0000700C6B20025701C05F0EAFE05E0395D6E
:100B0000641C41556D1CE4B2EDB2B542F7D300F858
:100B100005B0BDE8FE8F0000F168E388B5F8E43E5B
:100B2000A08601000088C3408096980040420F00D4
:100B30002DE9F04114460025354ADFF8D8C0642776
:100B40004FF47A764FF00A08082B2BD0042B27D1CC
:100B50006346FFF70BFB00222F4BFFF7AEFBFFF7BF
:100B6000ABFCB0FBF6F13031A171B0FBF6F106FB46
:100B70001101B1FBF7F1E57130312171B0FBF7F1F3
:100B800007FB11024146B2FBF1F265713032A270EF
:100B9000B0FBF8F208FB1200E57030302070657091
:100BA000BDE8F0816346FFF7E1FA00221B4BFFF737
:100BB00084FBFFF781FC1A49B0FBF1F23032A273DB
:100BC000B0FBF1F201FB12021649E573B2FBF1F240
:100BD00030322273B0FBF1F201FB1202124965734D
:100BE000B2FBF1F23032A272B0FBF1F201FB120261
:100BF00042F21071B2FBF1F2E57230322272B0FBB8
:100C0000F1F201FB1201B1FBF6F16572ABE70000F6
:100C1000F168E388B5F8E43E000024400088C34052
:100C20008096980040420F00A086010070470000A7
:100C300006490020C8610648016941F004010161CC
:100C4000016941F04001016170470000580900202E
:100C500000200240064A0021D16106490A6942F09B
:100C600002020A614861086940F04000086170476B
:100C70005809002000200240044B0022DA61044A97
:100C8000136943F001031361018070475809002084
:100C90000020024014480022C168CB06134904D545
:100CA000CA6942F00202CA611022C3685B0705D517
:100CB000CB6943F00103CB6142F00402C369DB0757
:100CC00007D0CB6943F00403CB61C16921F0010176
:100CD000C161A2F58071013901D0C2607047C1695C
:100CE00021F00101C1617047002002405809002035
:100CF00070B5054601F0FEF90646114C09E0681C86
:100D000007D025B101F0F6F9801BA84201D90320D4
:100D100070BDE068C007F2D1E068800601D52020F0
:100D2000E060E068C00605D4E069C00702D1E06871
:100D3000400703D5FFF7AEFF012070BD002070BD56
:100D40000020024070B57826B00005F0C1FD0546D0
:100D5000002318465FF00004641CA4B245F8230089
:100D60000C2CF9D35B1C9BB20A2BF3D332462946D9
:100D7000034800F02FF92846BDE8704005F038BD63
:100D800000FC00082DE9F0470026344600F08CF8FE
:100D9000DFF8F4903D4D42F20F7A00BF04EB4400BF
:100DA00005EB001301220021D86802F0EAFC40EABA
:100DB000060701220021186902F0E3FC40EA070659
:100DC0004F464A460021986A02F0DBFC40EA0608DA
:100DD0003A460021D86A02F0D4FC40EA08063A46B6
:100DE0000021186802F0CDFC40EA060852460021B6
:100DF000586802F0C6FC40EA08063A4600219868A6
:100E000002F0BFFC40EA06083A460021586902F0A9
:100E1000B8FC40EA08063A460021986902F0B1FCA5
:100E200040EA060802220021D86902F0AAFC40EA42
:100E300008063A460021186A02F0A3FC40EA0608B8
:100E40003A460021586A02F09CFC641C40EA080003
:100E5000A4B206460A2CA1D3002813D0FFF772FFD4
:100E60000020024600EB4003002105EB031300BF06
:100E700043F82120491C89B20C29F9D3401C80B2C7
:100E80000A28EFD3BDE8F087FFC99A3BB0060020DF
:100E900010B5002304E010C841F823405B1C9BB24E
:100EA0009342F8D310BD000070B578260024B0003E
:100EB00005F00EFD0546014632460F48FFF7E8FFF4
:100EC0000E48002303EB4301002200EB011100BF99
:100ED00055F8246041F82260641C521C92B2A4B2FE
:100EE0000C2AF5D35B1C9BB20A2BEBD32846BDE83A
:100EF000704005F07DBC000000FC0008B00600203A
:100F00002DE9F0412D4D04462D4ED5E91C0100225E
:100F10003346FFF7D2F9FFF7CFFA2A4904EB440230
:100F200001EB02140022A062D5E91E013346FFF74F
:100F3000C4F9FFF7C1FAE06295F8C400E06095F8E3
:100F4000C5002061D5E9040100223346FFF7B5F959
:100F5000FFF7B2FA20601C4FD5E9060100223B469C
:100F6000FFF7ABF9FFF7A8FA6060D5E908010022A6
:100F70003B46FFF7A2F9FFF79FFAA060D5E90A0107
:100F800000223346FFF799F9FFF796FA6061D5E939
:100F90000E0100223346FFF790F9FFF78DFAA061AA
:100FA000A86CE06109480A4A01685143216240681F
:100FB00050436062BDE8F04100F030B8F00000201E
:100FC000006AF840B006002000002440E80100203C
:100FD000A0860100F0B5054685B0002004460490C7
:100FE00000900120CDE9025016460F4600F074FF34
:100FF00004A9684600F0D2FE0AE000BF57F824209A
:1010000000232946022000F027FF641CA4B22D1DF6
:10101000B442F3D300F016FF05B0F0BD2DE9F04166
:1010200078260024B00005F053FC05460F4A002046
:1010300000EB4001002302EB011100BF51F82370C7
:1010400045F82470641C5B1C9BB2A4B20C2BF5D336
:10105000401C80B20A28EBD3324629460448FFF7E9
:10106000B9FF2846BDE8F04105F0C2BBB00600203C
:1010700000FC000810B50A48FFF7F0FB0020084A02
:10108000014600BF32F81130491CC9B218440A2980
:10109000F8D3642148430A21B0FBF1F010BD0000F1
:1010A0000409002008B5074B5B790092002B4FF034
:1010B000000301D0002201E04FF6FF7200F004F8B7
:1010C00008BD0000140000202DE9FF4F83B08946C1
:1010D0000446DDF840B00090A4E080283ED20D2800
:1010E00004D0202808D9203880B206E009F1100089
:1010F0001FFA80F9009C2EE00020DFF838A10026BE
:101100004FF0800801900198002506EB001700BF02
:101110001AF8071028FA05F0014206D009EB06007C
:1011200081B2601980B2059A09E0DDE905018842C3
:1011300007D009EB060081B2601980B2069A00F070
:1011400085FA6D1CEDB2082DE2D3761CF6B2102E96
:10115000D9D30834A4B20BF1010B63E04FF00008BF
:10116000354808EB08119BF8002010F81130934225
:101170004DD100EB4100019041789BF80100814284
:1011800045D100254FF0800A0198002600EB450765
:101190002AFA06F0B978014206D009EB050081B2BF
:1011A000A01980B2059A09E0DDE90501884207D05F
:1011B00009EB050081B2A01980B2069A00F046FA48
:1011C000761CF6B2082EE3D30026F9782AFA06F048
:1011D000014207D009EB050081B2A019083080B2A6
:1011E000059A0AE0DDE90501884208D009EB05000F
:1011F00081B2A019083080B2069A00F027FA761C56
:10120000F6B2082EE1D36D1CEDB2102DBCD308F15F
:1012100001001FFA80F8B8F13E0FA1D310340BF192
:10122000020BA4B29BF8000000287FF456AF07B071
:10123000BDE8F08F50690008177900082DE9F84FD4
:101240009A46934688460446D4E0802853D22E28F6
:101250001BD0303880B200EB001101EB401069491F
:10126000002508444FF0800900900098002600EB0C
:10127000450729FA06F07978014208D008EB050005
:1012800081B2A01980B25A4609E00A20E3E7D345AB
:1012900007D008EB050081B2A01980B2524600F0D9
:1012A000D5F9761CF6B2082EE3D30026B87829FAD1
:1012B00006F1084207D008EB050081B2A0190830FA
:1012C00080B25A4608E0D34508D008EB050081B249
:1012D000A019083080B2524600F0B8F9761CF6B278
:1012E000042EE3D36D1CEDB2182DBED30A98401C1A
:1012F0000C340A907DE000204FEA000900EB8001E9
:1013000041480A9A01EB491110F8113012789342C2
:1013100065D100EB4100009041780A984078814205
:101320005DD100250099002605EB45000F188021AE
:10133000B878F140084206D008EB050081B2A01948
:1013400080B25A4607E0D34507D008EB050081B2CA
:10135000A01980B2524600F079F9761CF6B2082E38
:10136000E5D30026F9788020F040014207D008EB51
:10137000050081B2A019083080B25A4608E0D34572
:1013800008D008EB050081B2A019083080B252469F
:1013900000F05CF9761CF6B2082EE3D3002639790A
:1013A0008020F040014207D008EB050081B2A0196F
:1013B000103080B25A4608E0D34508D008EB05004B
:1013C00081B2A019103080B2524600F03FF9761C6D
:1013D000F6B2082EE3D36D1CEDB2182DA2D309F19D
:1013E000010080B281460A2888D30A98801C1834EC
:1013F0000A90A4B20A98007800287FF426AFBDE8CE
:10140000F88F0000416F0008758100082DE9FF4F3B
:1014100081B08A4680464FF08009DDF838B05DE043
:101420005FF00006314806EB86119BF80020435C14
:10143000934249D10844002400900098002500EB15
:10144000440729FA05F07978014207D00AEB040035
:1014500081B208EB050080B2039A0AE0DDE90301DE
:10146000884208D00AEB040081B208EB050080B284
:10147000049A00F0EBF86D1CEDB2082DE1D30025C5
:10148000B97829FA05F0014208D00AEB040081B2CC
:1014900008EB0500083080B2039A0BE0DDE9030198
:1014A000884209D00AEB040081B208EB050008303D
:1014B00080B2049A00F0CAF86D1CEDB2082DDFD39B
:1014C000641CE4B2202CB8D3761CB6B20F2EA9D37C
:1014D00008F110000BF1010B1FFA80F89BF80000D7
:1014E00000289DD105B0BDE8F08F0000A38400085E
:1014F0002DE9F84F9A469346884605469CE000BF82
:101500004FF0000950480A9A09EB891110F8113080
:10151000127893427ED100EB4100009041780A9806
:10152000407881427BD100240098002600EB84079C
:101530008020B978F040014206D008EB040081B267
:10154000A81980B25A4607E0D34507D008EB04003B
:1015500081B2A81980B2524600F078F8761CF6B233
:10156000082EE5D30026F9788020F040014207D00C
:1015700008EB040081B2A819083080B25A4608E08E
:10158000D34508D008EB040081B2A819083080B216
:10159000524600F05BF8761CF6B2082EE3D3002624
:1015A00039798020F040014207D008EB040081B275
:1015B000A819103080B25A4608E0D34508D008EB8D
:1015C000040081B2A819103080B2524600F03EF8F3
:1015D000761CF6B2082EE3D3002679798020F040FD
:1015E000014207D008EB040081B2A819183080B27C
:1015F0005A4608E0D34508D008EB040081B2A81988
:10160000183080B2524600F021F8761CF6B2082E4F
:10161000E3D300E003E0641CE4B2202C84D309F19E
:1016200001001FFA80F9B9F1040FFFF46BAF0A98BB
:10163000801C2035ADB20A900A98007800287FF40B
:101640005FAFBDE8F88F0000AF87000810B5144603
:101650004A1C93B2421C92B201F006FF2046BDE83C
:10166000104001F0ADBD0000F8B50024009490F8E2
:1016700024202546012A12D0012280F824204A681D
:101680001F23072A0DD20668776B521E02EB8202D7
:1016900093409F430B6893401F43776319E00220F8
:1016A000F8BD06680D2A0AD2376BD21F02EB820200
:1016B00093409F430B6893401F43376309E0F76AE9
:1016C0000D3A02EB820293409F430B6893401F4305
:1016D000F7620A68072306680A2A0AD3F7680A3AF3
:1016E00002EB420293409F438B6893401F43F76095
:1016F00008E0376902EB420293409F438B689340B6
:101700001F4337610A68102A01D0112A20D1124BD9
:1017100002689A4217D193681B0219D4936843F464
:10172000000393600968102912D10C490C4A09681A
:10173000B1FBF2F101EB8101490000E0491E00918B
:101740000029FBD104E0816A41F02001816201247B
:1017500080F824502046F8BD0024014030000020CD
:1017600040420F0070477047704700002DE9F0417C
:101770004FF0000704003D467ED0A06A002628B93D
:10178000E66284F82460204600F07EF82046FEF7EA
:10179000CDFFA16AC90600D420B1A06A40F01000B4
:1017A000A06269E0A16A21F4885141F00201A162BE
:1017B0006268E169237B0A4347EA43010A43A1685F
:1017C0004FF48077B94209D0012907D05FF00001BA
:1017D00094F814C0BCF1010F02D00AE03946F7E7D3
:1017E000F3B1A36A43F02003A362E36A43F0010369
:1017F000E3622368D3F804C02CF4694C4CEA010C72
:10180000C3F804C021688B68DFF870C003EA0C03DA
:1018100013438B60A168B9420BD0012909D00CE0B9
:10182000DFF85CC0A3690CEB43330B4343F4006166
:10183000DFE7218A0D05A5F580152168CB6A23F421
:1018400070032B43CB62216889680E4B194091428B
:1018500008D1E662A16A21F0020141F00101A16212
:10186000BDE8F081A06A20F0020040F01000A06204
:10187000E06A40F00100E0620120F1E7FDF7E1FFDE
:1018800000E0FFFFFE0E1FFF70B586B00025064684
:10189000009501950295039500681A4988422ED15A
:1018A0001949886940F400708861886900F4007003
:1018B0000490886940F0040088618869694600F0F6
:1018C0000400049002200090032001900F4800F0D3
:1018D00017FB104C0E48C4E900058020C4E90250F3
:1018E00040002061800060612020C4E90605204698
:1018F00000F0DCF908B1FFF799F93462666206B0CE
:1019000070BD0000002401400010024000080140AA
:1019100008000240C00800202DE9F047894604462F
:101920003B4900683B4F0E1D9046884201D0B842AB
:1019300007D1306810F4702F03D001252846BDE888
:10194000F08794F8240001280CD0012084F82400AA
:101950002046FEF74BFF05004FF0000004D084F84E
:101960002400EBE70220EAE7A16A40F60162914316
:1019700041F48071A1622168B94218D1326812F431
:10198000702F14D0A16A41F48011A1623168490519
:1019900005D5A16A21F4005141F48051A162A16AE8
:1019A000C9040AD5E16A21F00601E16206E0A26AF3
:1019B00022F48012A2624968E9E7E06284F8240018
:1019C000216A15488862216A1448C862216A14484D
:1019D000086321686FF0020008602068816841F4A4
:1019E00080718160216843464A464C31206A00F08C
:1019F0008BF920688168C1F342410729816803D0CF
:101A000041F48011816099E741F4A001FAE70000F8
:101A1000002401400028014079070008E107000880
:101A2000C707000810B5044690F82400012807D025
:101A3000012084F824002046FEF778FE10B113E060
:101A4000022010BD21688A6822F480728A60216AAF
:101A500091F82120022A07D1084600F00EF8A16A69
:101A600030B141F04001A162002184F8241010BD82
:101A700021F4885141F00101F5E710B590F82110EB
:101A80000022022905D00421816380F82020012052
:101A900010BD01680B6823F00E030B6001680B6832
:101AA00023F001030B6090F84030C46B012101FA70
:101AB00003F3636080F8211080F82020104610BDE9
:101AC00010B590F821100024022903D0042181636D
:101AD00001243DE001680A6822F00E020A600168F4
:101AE0000A6822F001020A601A4A0168914201D193
:101AF000012121E0174A1432914201D110211BE04B
:101B0000144A2832914201D1891515E0114A3C321C
:101B1000914201D189140FE00E4A5032914202D114
:101B20004FF4803108E00B4A6432914202D14FF405
:101B3000801101E04FF08071064A083A516001219E
:101B400080F82110002180F82010416B01B18847F6
:101B5000204610BD080002402DE9F05FC16B0C6803
:101B600001680B68D0F840C0042202FA0CF2494D1B
:101B7000DFF824A1494E4A4FDFF828B1DFF828E109
:101B800022422CD05A072AD50A68920603D40A6842
:101B900022F004020A600168A94201D1042219E07E
:101BA000514501D1402215E0B14202D14FF480628B
:101BB00010E0B94202D14FF480420BE0594502D106
:101BC0004FF4802206E0714502D14FF4800201E01B
:101BD0004FF080622F4908394A60C16A3BE04FF0FC
:101BE000020808FA0CF818EA040F4FF000094FF049
:101BF000010235D05FEA837832D50B689B0605D4A5
:101C00000B6823F00A030B6080F821200168A942C9
:101C100001D1022219E0514501D1202215E0B14243
:101C200002D14FF4007210E0B94202D14FF40052D9
:101C30000BE0594502D14FF4003206E0714502D164
:101C40004FF4001201E04FF00072124908394A6067
:101C500080F82090816A00291AD0BDE8F05F08471B
:101C6000082505FA0CF5254212D01B0710D50B6884
:101C700023F00E030B6090F84010C36B02FA01F1E1
:101C80005960826380F8212080F82090016BE2E7A0
:101C9000BDE8F09F080002401C00024030000240F6
:101CA00044000240580002406C00024030B528B3A6
:101CB00008C8134914221944B1FBF2F18900C16329
:101CC00010498163022141771A6843F6F0718A4313
:101CD000D0E900142143D0E902452C432143046993
:101CE0002143446921438469214311431960002140
:101CF0004163012242770177084630BD012030BDA3
:101D0000F8FFFDBF0000024070B5044690F82000C7
:101D1000002501280CD0012084F8200094F82160CF
:101D20000020012E06D084F820000225284670BD30
:101D3000022070BD022684F82160A0632068066836
:101D400026F0010606602046FEF7F2FDE06A002854
:101D50002068016802D041F00E0106E021F0040184
:101D600001602068016841F00A0101602068016893
:101D700041F001010160D9E770B5044600F0BAF9FD
:101D80000546601C02D004480078044400F0B2F913
:101D9000401BA042FAD370BD240000202DE9F0477B
:101DA000054626480F460126017E01290FD0012154
:101DB000814601762868DFF888804CF2503402288A
:101DC00008D0A2462046FEF793FFA8B131E00220DA
:101DD000BDE8F0872046FEF78BFF08BB0120FEF729
:101DE00027FF2046FEF784FFD8F81010064621F0A2
:101DF0000401C8F810101CE04FF0FF303860AC68E8
:101E000011E02046FEF726FF5046FEF771FFD8F896
:101E10001010060021F00201C8F8101001D03C603B
:101E200007E004F58064D5E9020100EB8120A042BF
:101E3000E7D8002189F818103046C9E75809002072
:101E4000002002400348016941F080010161002047
:101E500070470000002002402DE9F05F07461C4853
:101E600088460024017E15461E46012909D001211D
:101E7000814601764CF2503A5046FEF739FF18B1D0
:101E800022E00220BDE8F09F012F02D0022F00D0F7
:101E90000427D346DFF83CA0220128463146FEF74E
:101EA00043F981B208EB4400FEF7E6FE5846FEF720
:101EB0001FFFDAF8102022F00102CAF8102018B92A
:101EC000641CE4B2BC42E7D3002289F81820D9E7A9
:101ED0005809002000200240064900200A69120625
:101EE00007D5054A4A60054A4A600969090600D5CE
:101EF000012070470020024023016745AB89EFCDE8
:101F00002DE9F84FDFF8B891002409F1040A0AF12D
:101F1000040B23460F270BF1040EC9E00125A54051
:101F20002A40AA427DD1674ED1F804C0ACEB060826
:101F3000B44532D014DCBCF1030F3AD009DCBCF15B
:101F4000000F2AD0BCF1010F1CD0BCF1020F31D11F
:101F50001DE0BCF1110F17D0BCF1120F2AD119E00E
:101F6000B8F5881F19D006DCB8F5803F15D0B8F554
:101F7000801F1FD111E0B8F5001F0ED0B8F5041F67
:101F800018D10AE0CB6815E0CB681B1D12E0CB68C6
:101F900008330FE0CB680C330CE08B682BB1012BBE
:101FA0004FF0080303D0456104E0042302E005611B
:101FB00000E00023FF2A01D8064601E000F10406F4
:101FC0004FEA840501D9A5F12005D6F8008007FA6B
:101FD00005FC28EA0C0803FA05F548EA0508C6F8E6
:101FE00000804D68ED0062D5374DAE6946F00106C0
:101FF000AE61AD6924F0030605F001050095334D8F
:1020000006EB050CDCF80850A607360F07FA06F8B1
:1020100025EA0805DFF8B880404503D14FF00008F5
:1020200017E044E0DFF8AC80404502D14FF00108F2
:102030000FE0DFF8A480404502D14FF0020808E02D
:10204000DFF89880404502D14FF0030801E04FF0DF
:10205000040808FA06F848EA0508CCF808804D6834
:10206000D9F80060ED034D4601D5164300E09643D4
:102070002E604D68DAF80060AD03554601D5164371
:1020800000E096432E604D68DBF80060ED025D468F
:1020900001D5164300E096432E604D68DEF80060DF
:1020A000AD02754601D5164300E096432E60641CD0
:1020B0000D682A46E5407FF431AFBDE8F88F000097
:1020C0000004014000001110001002400000014017
:1020D00000080140000C01400010014000140140C4
:1020E0008068084000D0012070470AB10161704744
:1020F0000904FBE7014880687047000024000020C5
:1021000002488168027811448160704724000020F1
:10211000074810B5016841F010010160032000F08C
:1021200075F8002000F006F800F024F8002010BD3B
:102130000020024070B50D4D04464FF47A712878A6
:10214000B1FBF0F00A490968B1FBF0F000F062FB66
:1021500048B9102C07D200222146501E00F036F854
:1021600000206C6070BD012070BD000024000020C4
:10217000300000200C4808B5816941F001018161FF
:10218000816901F001010091C16941F08051C16193
:10219000C06900F0805000900448416821F0E0617F
:1021A00041F00071416008BD001002400000014094
:1021B000002809DB00F01F02012191404009800046
:1021C00000F1E020C0F8001170470000F0B40E4BA1
:1021D0001B680C46C3F30223C3F10705042D00D985
:1021E0000425191D072901D2002300E0DB1E01266A
:1021F00006FA05F1491E214099409E40761E164080
:102200003143F0BC03F062BE0CED00E0064900F083
:10221000070208684FF6FF03184040EA0220034A0D
:1022200010430860704700000CED00E00000FA0564
:102230002DE9F84305460078354CC00754D0E069D5
:102240000026C00008D4E06940F08050E061E069F9
:10225000012600F0805000902E480168C90512D474
:102260000168804641F480710160FFF743FF074633
:1022700005E000BFFFF73EFFC01B642823D8D8F855
:102280000000C005F6D5206A10F4407021D0A9885E
:1022900001F4407181421CD0206A1F49012220F4C0
:1022A00040700A6000220A602062C00711D0FFF768
:1022B00021FF074641F2883808E000BFFFF71AFF08
:1022C000C11B414502D90320BDE8F883206A80077D
:1022D000F4D5206A696820F44070084320621EB17A
:1022E000E06920F08050E0612878800705D56068BB
:1022F000A96820F44040084360602878C00605D5EE
:102300006068E96820F48000084360600020DBE733
:102310000010024000700040400442422DE9F047A6
:102320000F46050061D0434E306800F00700B84208
:1023300009D2306820F0070038433060306800F080
:102340000700B84251D128683B4C810712D540079D
:1023500003D5606840F4E06060602878000703D52A
:10236000606840F4605060606068A96820F0F00028
:10237000084360602878C00728D06868012810D01A
:102380002168022810D0890700292EDA616821F01F
:10239000030101436160FFF7ADFE804641F28839D9
:1023A0000DE021688903EFE78901EDE7FFF7A2FE61
:1023B000A0EB0801494502D90320BDE8F087606819
:1023C000696800F00C00B0EB810FEFD1306800F0CD
:1023D0000700B8420BD9306820F00700384330605E
:1023E000306800F00700B84201D00120E5E7287806
:1023F000400705D56068E96820F4E0600843606044
:102400002878000706D56068296920F4605040EA02
:10241000C100606000F038F86168084AC1F3031138
:10242000515CC8400649086006480068FFF782FE14
:102430000020C2E70020024000100240398A000854
:102440003000002028000020044805490068496841
:10245000044AC1F30221515CC8407047300000209B
:1024600000100240498A000804480549006849688C
:10247000044AC1F3C221515CC840704730000020BB
:1024800000100240498A000812A185B00FC98DE8EA
:102490000F0014A0144A006804905168134801F01A
:1024A0000C03042B10D0082B0ED1C1F38343C903B6
:1024B0001DF803000AD5516804AAC1F34041515CDC
:1024C0000A4A5043B0FBF1F005B070470849484351
:1024D000FAE7000002030405060708090A0B0C0DC1
:1024E0000E0F1010010200000010024000127A00CE
:1024F00000093D002DE9F84F040070D02078C04D50
:10250000C00749D06868C0F38100012807D0686817
:10251000C0F38100022809D16868C00306D5286885
:10252000800339D560680028E7D035E06068B0F5F1
:10253000803F0BD010B1B0F5A02F11D0286820F447
:1025400080302860286820F4802002E0286840F469
:1025500080302860606890B1FFF7CCFD06460AE045
:10256000286840F480202860F0E700BFFFF7C2FD34
:10257000801B642873D828688003F7D50CE0FFF728
:10258000B9FD064605E000BFFFF7B4FD801B6428D7
:10259000F0D828688003F7D420789A4E80074FF04F
:1025A00001094FF0000839D5686810F00C0F07D00A
:1025B0006868C0F38100022809D16868C00306D4A6
:1025C0002868800714D52069012808D110E0206907
:1025D000B0B1C6F80090FFF78DFD074605E00AE1AF
:1025E000FFF788FDC01B0228C4D828688007F7D5EC
:1025F0002868616920F0F80040EAC10028600DE019
:10260000C6F80080FFF776FD074604E0FFF772FD8D
:10261000C01B022823D828688007F7D42078000739
:102620002CD57948A169D9B1C0F80090FFF762FDB7
:10263000074604E0FFF75EFDC01B02280FD8686A5A
:102640008007F7D571484FF4FA510068B0FBF1F0FC
:10265000009000BF0098411E0091FAD20EE080E089
:10266000C0F80080FFF746FD074604E0FFF742FD93
:10267000C01B022875D8686A8007F7D42078400705
:1026800060D5E8690027C00008D4E86940F08050B0
:10269000E861E869012700F0805000905C4801681B
:1026A000C90513D40168834641F480710160FFF7C6
:1026B00021FD824606E000BFFFF71CFDA0EB0A00EB
:1026C00064284ED8DBF80000C005F5D5E068012885
:1026D0000AD008B1052813D0286A20F0010028622A
:1026E000286A20F0040002E0286A40F00100286215
:1026F000E06841F2883B98B1FFF7FCFC82460BE0B2
:10270000286A40F004002862EEE700BFFFF7F2FC01
:10271000A0EB0A0159455AD8286A8007F6D50CE083
:10272000FFF7E8FC824605E0FFF7E4FCA0EB0A01B6
:1027300059454CD8286A8007F6D41FB1E86920F0C3
:102740008050E861E06988B36968C1F381010229BA
:1027500044D00228C6F8608004D0FFF7CBFC0446C2
:1027600038E034E0FFF7C6FC074604E0FFF7C2FCA0
:10277000C01B02282BD828688001F7D4206AB0F546
:10278000803F05D16868A16820F400300843686084
:10279000D4E908010843696821F4741108436860AA
:1027A000C6F86090FFF7A6FC044606E025E000BFEF
:1027B000FFF7A0FC001B022809D828688001F7D584
:1027C0001BE000BFFFF796FC001B022802D9032084
:1027D000BDE8F88F28688001F4D40EE00128F7D016
:1027E0006868226A00F48031914204D1616A00F481
:1027F0007010884201D00120EAE70020E8E70000DD
:10280000001002400000424280044242300000209A
:102810000070004010B5401EB0F1807F01D3012050
:1028200010BD4FF0E02460610F21601703F04EFBF4
:102830000020A06107202061002010BD7047704774
:1028400070B590F83C20012A26D0012480F83C4045
:10285000022280F83D2003685A689D6822F07006C5
:102860000A6832435A600D4B02689A4208D0B2F1AE
:10287000804F05D00A4B9A4202D00A4B9A4204D1AB
:10288000496825F080031943916080F83D4000219C
:1028900080F83C10084670BD022070BD002C01403D
:1028A000000400400008004010B5040003D094F874
:1028B0003D0010B107E0012010BD002084F83C006D
:1028C000204600F01FF8022084F83D00211D2068FA
:1028D00003F0C0F8012084F8460084F83E0084F834
:1028E0003F0084F8400084F8410084F8420084F8F6
:1028F000430084F8440084F8450084F83D0000203B
:1029000010BD000008B50068B0F1804F12D10A4830
:10291000C16941F00101C161C069002200F00100FC
:10292000009011461C20FFF751FCBDE808401C2018
:10293000FFF73EBC08BD00000010024090F83D10BB
:10294000012901D001207047022180F83D10016863
:10295000CA6842F00102CA6000680B49884208D088
:10296000B0F1804F05D00949884202D00849884219
:1029700004D1816801F00701062903D0016841F004
:102980000101016000207047002C0140000400405C
:10299000000800400168CA6822F00102CA600168AC
:1029A0000A6A41F211131A4207D10A6A9B101A42AD
:1029B00003D10A6822F001020A60012180F83D106B
:1029C0000020704770B5044690F83C00012817D0ED
:1029D000012584F83C50022084F83D00206882687C
:1029E00022F0770222F47F4282600868502830D0BB
:1029F0000DDC20284DD005DC98B310283BD148E0F1
:102A0000022070BD302844D0402834D139E06028FD
:102A100028D0702806D0B0F5805F2CD0B0F5005FCC
:102A200029D10AE0CB68D1E90121206803F048F8F8
:102A30002068816841F0770109E0CB68D1E9012184
:102A4000206803F03DF82068816841F4804181608E
:102A500011E0CA684968206803F044F850212068F2
:102A600007E016E0CA684968206803F04CF8602166
:102A7000206803F02FF884F83D50002084F83C00D3
:102A800070BDCA684968206803F02CF840212068AE
:102A9000EFE7226801461046EBE7704770B5044641
:102AA000006801694FF00005C943890715D4C16862
:102AB000C943890711D4E91E0161012020772068EC
:102AC00080698007204602D0FFF7E7FF04E000F0AE
:102AD00098F8204600F096F8257720680169C943E8
:102AE000490717D4C168C943490713D46FF00401DB
:102AF0000161022020772068806910F4407F204621
:102B000002D0FFF7CAFF04E000F07BF8204600F097
:102B100079F8257720680169C943090716D4C16887
:102B2000C943090712D46FF008010161042020771E
:102B30002068C0698007204602D0FFF7AEFF04E09E
:102B400000F05FF8204600F05DF825772068016905
:102B5000C943C90617D4C168C943C90613D46FF065
:102B600010010161082020772068C06910F4407FBF
:102B7000204602D0FFF791FF04E000F042F8204623
:102B800000F040F8257720680169C943C90708D1DA
:102B9000C168C943C90704D1891E0161204600F0FC
:102BA00033F820680169C943090609D4C168C943DB
:102BB000090605D46FF0800101612046FFF73EFE53
:102BC00020680169C943490609D4C168C943490657
:102BD00005D46FF040010161204600F057F82068ED
:102BE0000169C94389060BD4C168C943890607D462
:102BF0006FF0200101612046BDE87040FFF71FBE65
:102C000070BD70477047000030B51E490A78521CED
:102C1000D2B20A700068B0F1804F32D10023012097
:102C20000A2A06D1184A10700B70C8714A78521CD3
:102C30004A704A780A2A24D34B7008724A880524BD
:102C4000521C92B2B2FBF4F504FB15244A80002C0E
:102C500017D10A24B2FBF4F504FB15244872002CAA
:102C60000FD14FF41674B2FBF4F504FB15248872EF
:102C7000002C06D148F6A044C872A24201D34B8072
:102C8000087330BD3C0000200400002070477047EE
:102C900070B5026804461068D168536910F00F0FD0
:102CA00052D003F0010501F490762E435FD0C207A5
:102CB00005D0CA0503D5E26B42F00102E263420788
:102CC00005D5DA0703D0E26B42F00202E263820725
:102CD00005D5DA0703D0E26B42F00402E263020793
:102CE00007D501F020022A4303D0E26B42F008022C
:102CF000E263E26B002A33D0800604D5880602D551
:102D0000204602F028FF20684069E16BC0F3801084
:102D1000090700D428B3204602F00FFF206841695C
:102D200049061AD5416921F040014161606BA0B1AB
:102D30002D494163606BFEF7C3FE002810D0606B25
:102D4000416BBDE870400847830610D58B060ED551
:102D50002046BDE8704002F0FEBE2046FFF797FF18
:102D600070BD2046FFF793FF0020E06370BD0306AF
:102D70002BD50B0629D594F839002128F6D1A06867
:102D8000B0F5805F01D12069B0B1206A411C216299
:102D9000216800784860E08C401E0004000CE0844C
:102DA000E4D12068C16821F08001C1602068C16859
:102DB00041F04001C16070BD206A0088C0F3080086
:102DC0005060206A801C2062E5E74006F3D5480683
:102DD000F1D5D168204621F04001D160202184F84E
:102DE000391000F076F870BD2B5B000870B5040058
:102DF00004D094F83900002510B106E0012070BD20
:102E000084F83850204600F023F8242084F8390054
:102E10002068C16821F40051C160204602F0E2FE42
:102E20002068016921F4904101612068416921F025
:102E30002A0141612068C16841F40051C160E56325
:102E4000202084F8390084F83A00002070BD00008A
:102E500030B585B000240094019402940394006876
:102E6000184988422CD11848816941F48041816118
:102E7000816901F480410491816941F0040181611B
:102E80008069124D00F0040004904FF4007000902F
:102E9000022001900320039069462846FFF730F88E
:102EA0002815CDE90004694628460294FFF728F862
:102EB000002211462520FFF789F92520FFF778F930
:102EC00005B030BD0038014000100240000801404C
:102ED00070477047FEE700002DE9F04700EB400126
:102EE000334800EB01142068FDF7D9FADFF8C480FD
:102EF000DFF8C49042464B46FDF7DFF92F4DC5E998
:102F000004016068FDF7CBFA2D4E2E4F32463B464A
:102F1000FDF7D3F9C5E90601A068FDF7C0FA32460E
:102F20003B46FDF7CAF9C5E90801207B85F8C400D6
:102F3000207C85F8C5006069FDF7B1FA42464B4632
:102F4000FDF7BBF9C5E90A01A069FDF7A8FA4246F9
:102F50004B46FDF7B2F9C5E90E01E069A864A06A25
:102F6000FDF79DFA42464B46FDF7A7F9C5E91C015E
:102F7000E06AFDF794FA42464B46FDF79EF9C5E933
:102F80001E01206AFDF78BFA42464B46FDF795F984
:102F9000FDF792FA0C4D2860606AFDF780FA424610
:102FA0004B46FDF78AF9FDF787FA6860BDE8F087C0
:102FB000B0060020F168E388B5F8E43EF000002098
:102FC0009A9999999999B93FE80100202DE9FC4116
:102FD00042F21072B0FBF2F130318DF80010B0FB0C
:102FE000F2F102FB11014FF47A72B1FBF2F13031D0
:102FF0008DF80110B0FBF2F102FB11016422B1FB6C
:10300000F2F130318DF80210B0FBF2F102FB110247
:103010000A21B2FBF1F230328DF80320B0FBF1F25D
:1030200001FB1200002430308DF804006E46305D44
:10303000302803D1641CE4B2042CF8D3C4F1050099
:10304000C7B20025384603F043FC05E0315D641C3F
:1030500041556D1CE4B2EDB2BD42F7D3002141559C
:10306000BDE8FC81124810B501780024E9B10021C7
:10307000017000F01FF8102812D006DC022809D0D9
:10308000042809D0082810D108E020280AD04028B8
:103090000BD109E0012408E0022406E0032404E047
:1030A000042402E0052400E00624204610BD0000B0
:1030B000040000202DE9F05FDFF8FC804FF4005998
:1030C000002549464046FFF70BF800263B4C0127F8
:1030D000F0B14FF4805A51464046FFF701F8B8B1BD
:1030E0004FF4806B59464046FEF7FAFF80B1F90273
:1030F0004046FEF7F5FF58B1B9034046FEF7F0FF32
:1031000030B1F9034046FEF7EBFF60BB607850B387
:10311000207805284DD2DFE800F00305070E1B00DC
:10312000277046E0022004E003F096FB0546E070BD
:10313000032020703DE0A078401CC0B2A070C828D9
:1031400037D1A67004202070E07840F0200530E0F0
:10315000A078401CC0B2A07032282AD1A670E078B6
:1031600040F0400525E049464046FEF7B9FF0128FA
:103170001FD151464046FEF7B3FF012819D15946E9
:103180004046FEF7ADFF012813D1C1024046FEF7CD
:10319000A7FF01280DD181034046FEF7A1FF0128BA
:1031A00007D1C1034046FEF79BFF012801D12670DD
:1031B00067702846BDE8F09F000C01400000002029
:1031C00070B50446074808250560064E1020361FD6
:1031D0003060200A00F0A8FBE0B200F0A5FB3560EB
:1031E00070BD00001408014070B5064600217F2321
:1031F0009F22084600F038F92C2000F06DF90024D9
:1032000000253046FFF7DCFF6D1C802DF9D3641CD0
:10321000A02CF5D370BD10B500F014F9112000F00A
:103220005BF9782003F0D5FAB12000F055F90120C0
:1032300000F044F92C2000F041F92D2000F03EF977
:10324000B22000F049F9012000F038F92C2000F0FC
:1032500035F92D2000F032F9B32000F03DF90120BE
:1032600000F02CF92C2000F029F92D2000F026F98F
:10327000012000F023F92C2000F020F92D2000F08F
:103280001DF9B42000F028F9072000F017F9C0203C
:1032900000F022F9A22000F011F9022000F00EF94E
:1032A000842000F00BF9C12000F016F9C52000F0D1
:1032B00005F9C22000F010F90A2000F0FFF8002004
:1032C00000F0FCF8C32000F007F98A2000F0F6F8BF
:1032D0002A2000F0F3F8C42000F0FEF88A2000F065
:1032E000EDF8EE2000F0EAF8C52000F0F5F80E2029
:1032F00000F0E4F8362000F0EFF8C02000F0DEF82F
:10330000E02000F0E9F80F2000F0D8F81A2000F0D3
:10331000D5F80F2000F0D2F8182000F0CFF82F20B9
:1033200000F0CCF8282000F0C9F8202000F0C6F802
:10333000222000F0C3F81F2000F0C0F81B2000F08E
:10334000BDF8232000F0BAF8372000F0B7F80020CD
:1033500000F0B4F8072000F0B1F8022000F0AEF859
:10336000102000F0ABF8E12000F0B6F80F2000F0DC
:10337000A5F81B2000F0A2F80F2000F09FF81720FE
:1033800000F09CF8332000F099F82C2000F096F81B
:10339000292000F093F82E2000F090F8302000F063
:1033A0008DF8302000F08AF8392000F087F83F20AF
:1033B00000F084F8002000F081F8072000F07EF88B
:1033C000032000F07BF8102000F078F82A2000F0AD
:1033D00083F8002000F072F8002000F06FF8002061
:1033E00000F06CF87F2000F069F82B2000F074F8F2
:1033F000002000F063F8002000F060F8002000F0EA
:103400005DF89F2000F05AF8F02000F065F80120E8
:1034100000F054F8F62000F05FF8002000F04EF8BD
:10342000362000F059F8682000F048F83A2000F003
:1034300053F8052000F042F8BDE81040292000F0C4
:103440004BB8000010B5074820240460642003F046
:10345000C0F90448001F0460BDE81040322003F0AA
:10346000B8B9000014080140F0B507461C461546DF
:103470000E462A2000F030F8002000F01FF8F8B2C5
:1034800000F01CF8002000F019F8AD1CE8B200F0C4
:1034900015F82B2000F020F8002000F00FF8F0B213
:1034A00000F00CF8002000F009F8641CE0B200F015
:1034B00005F8BDE8F0402C2000F00EB830B5054905
:1034C00008240C60034D10212D1F296000F02CFAF8
:1034D0002C6030BD1408014010B5054908240C606B
:1034E00010220A6000F020FA0148001F046010BD9D
:1034F000140801403EB500211148009101910F4A86
:103500000291026001248160047301754FF460220E
:103510000461C2614160FEF729F908B1FDF786FB3D
:1035200007200094CDE9014069460548FEF79CF864
:10353000002801D0FDF77AFB3EBD000000240140C9
:1035400090080020094808B5416941F00101416136
:103550004069002200F00100009011460B20FEF7A8
:1035600035FEBDE808400B20FEF722BE00100240E9
:103570002DE9F04186B0002428480094019402947B
:103580000394816941F010018161816901F01001AA
:103590000491816941F020018161816901F020017C
:1035A0000491816941F004018161816901F00401A4
:1035B0000491816941F0080181618069012200F074
:1035C0000800174F5503049029463846FEF78DFD35
:1035D000DFF850800022FC214046FEF786FD009572
:1035E000022601250396CDE9015469463846FEF7C7
:1035F00087FCFC20CDE90005CDE90246694640463E
:10360000FEF77EFC4FF47C408DE8310069460648A9
:10361000FEF776FC06B0BDE8F08100000010024025
:103620000010014000080140000C014010B586B0B8
:1036300000241748009401940294039404944FF0DA
:103640008041059401604721C0E9011440F2E7314F
:10365000C0E903148461FFF727F908B1FDF7E6FA22
:103660004FF48050009069460948FFF7ABF908B164
:10367000FDF7DCFA049404A905480594FFF7E0F887
:1036800008B1FDF7D3FA0248FFF758F906B010BDAC
:103690004C0000200C4810B50A4901604FF4165147
:1036A0004160002181600C22C160C0E90412816187
:1036B000C161FFF79BFB002803D0BDE81040FDF778
:1036C000B5BA10BD0038014018090020FEE700001F
:1036D00070B5184A054601241078831E411E072D37
:1036E00008D2DFE805F007040C15191E2200022B92
:1036F00001D8117070BD0128FCD1042002E003291B
:1037000002D2401C107070BD0428FCD1147070BD32
:103710000129FCD8801CF5E7C01E0128F7D81370DA
:1037200070BDBDE8704003F009B9012003F006F94F
:10373000ECE70000140000200D4810B5C27900230A
:103740000121012A02D10B4AC3711170027A012AA8
:1037500006D1094A037254790CB1537100E05171DA
:10376000427A012A03D14372044880F84C1010BDFC
:103770003C0000200400002014000020A0000020D5
:103780007047884201D3904201D901207047002040
:103790007047704730B50F4885B0816941F004012A
:1037A000816180694FF4004400F00400049001201E
:1037B000CDE9004002900320074D0390694628465A
:1037C000FEF79EFB012221462846FEF78EFC05B03F
:1037D00030BD0000001002400008014010B5002478
:1037E0000022FF21104600F081F8641CE4B2142C82
:1037F000F6D310BD10B500224FF400410348FEF788
:1038000074FCBDE810404B2002F0D8BF0008014016
:1038100070B50122194DD40321462846FEF765FCF8
:1038200000BF00BF00BF00BF002221462846FEF7B0
:103830005CFC00BF00BF00BF00BF00BF00BF00BFF7
:1038400000BF00BF00BF00BF00BF00BF00BF00BF80
:1038500000BF00BF00BF00BF00BF00BF00BF00BF70
:1038600000BF00BF00BF00BF00BF00BF00BF00BF60
:1038700000BF00BF00BF00BF00BF70BD0008014017
:1038800070B50122184DD40321462846FEF72DFCC1
:1038900000BF00BF00BF00BF00BF00BF00BF00BF30
:1038A00000BF00BF00BF00BF00BF00BF00BF00BF20
:1038B00000BF00BF00BF00BF00BF00BF00BF00BF10
:1038C000002221462846FEF710FC00BF00BF00BFC3
:1038D00000BF00BF00BF00BF00BF00BF00BF00BFF0
:1038E00000BF00BF00BF70BD0008014070B51446A6
:1038F0000D4600F008F8284600F005F82046BDE81F
:103900007040AFF3008070B504460025200602D554
:10391000FFF7B6FF01E0FFF77BFF60066D1C040EAA
:10392000EDB2082DF2D370BD70B5094B08214024CB
:103930001D1D8022060601D51C6000E02C602A6057
:103940001A604006000E491E11F0FF01F2D170BD51
:1039500010080140704710B5FEF7DAFB02F042F89C
:10396000FFF706FEFFF716FFFFF744FFFFF7EAFD3C
:10397000FFF7C0FDFFF78EFEFFF758FEBDE81040D1
:10398000AFF300802DE9FF41FFF745FCFDF7FAF9A1
:103990002A4D2868FFF7A0FA05F1F8063068FCF711
:1039A0007EFD07460C467068FCF779FD06468C469E
:1039B000D5E90A01CDE90201CDE90074D5E90E236C
:1039C0003046614602F072F90020FFF70DFC1CA0A2
:1039D0004FF6FF740090002322460F211620FDF7BA
:1039E00015FD19A000900023224632210F20FDF77B
:1039F0007FFD18A000900023224655212D20FDF7C1
:103A000005FD1649042008604FF4FA6002F0E1FE5B
:103A1000012002F093FFA5F150000021C0E902113E
:103A2000104A0F49C0E904120020FFF7DDFB04B083
:103A30000A20BDE8F04102F0CCBE0000F0000020FA
:103A40005A4F4E4345544100C6F8B5E7C1BFD2C7EF
:103A50000000000056312E30000000001008014028
:103A6000A323B9FCFF87C3402DE9F0414D4DAC784D
:103A7000FFF7F8FA0A2C3DD008DC2146082C37D293
:103A8000DFE804F0360C41737D363683A4F116016D
:103A900004292DD2DFE801F0414B555F062805D0FF
:103AA000042805D0BDE8F04100F016BC0A2075E0FE
:103AB0003D4DD5E90001FCF7FFFCDFF8E88005F596
:103AC000B077A8F10A08B8F8044004EB440647F8B8
:103AD0002600D5E90201FCF7EFFC07EB86067060D3
:103AE000D5E90401FCF7E8FC641CB060A8F80440C8
:103AF000BDE8F08118B1BDE8F041FFF7E9BDBDE8D0
:103B0000F04100F02BBFE97018B1BDE8F04100F0C2
:103B10004DB8BDE8F04101F04DB8EC7018B1BDE80A
:103B2000F04100F077B8BDE8F04101F0A3B8EC70C7
:103B300018B1BDE8F04100F0C9B8BDE8F04101F0AE
:103B4000A1B9EC7018B1BDE8F04100F0D7B9BDE8FB
:103B5000F04101F06DBCEC7018B1BDE8F04100F02F
:103B600075BABDE8F04101F035BEE97018B1BDE8A5
:103B7000F041FCF7A1BEBDE8F04100F091BA062883
:103B800094D0BDE8F04100F0BDBF062805D005285F
:103B900003D0BDE8F04100F073BBE878BDE8F04128
:103BA00002F0CCBE10000020A000002070B5174924
:103BB000174C0346C86CE278072B13D2DFE803F0FA
:103BC00012040A1212132400012A0BD1092809D267
:103BD000401C06E0012A05D1002803D0092801D89D
:103BE000401EC86470BD012A06D0022AFAD11620F0
:103BF000BDE8704002F0A2BE0222E2700860FFF74A
:103C00006BF90120207170BD0A20F1E7F00000205F
:103C1000140000202DE9F0412B4C2A4D0126A179FA
:103C2000E27805EB4103072812D2DFE800F0110427
:103C3000131F28314900012A0AD193F8A400A0F1EA
:103C40003001092901D2401C00E0302083F8A40093
:103C5000BDE8F081012AFBD193F8A400A0F1310165
:103C6000082901D8401EF1E73920EFE7012AEFD1FA
:103C70000029EDD00729EBD8E171491E05E0012AA2
:103C8000E6D10729E4D2E171491CA1712672DFE770
:103C9000012A06D0022ADBD11720BDE8F04102F04C
:103CA0004DBE0220E07007480821A43001F0E4FD79
:103CB000C5E9040126712868BDE8F041FDF720B987
:103CC0000220EAE7F0000020140000202DE9F04770
:103CD000884D894C012695F8C4C0A27995F8C57025
:103CE000E3784FF0000905EB4201072822D2DFE814
:103CF00000F021044B87A0B2FE003024012B0DD030
:103D0000022B1FD0032B31D0042B13D191F8EE00DE
:103D1000A0F13002092A34D2401C45E0042A52D0D6
:103D200091F8B400A0F13002092A08D2401C47E003
:103D300085F8C490BDE8F08785F8C460FAE781F89B
:103D4000B440F7E7042A4ED091F8BC00A0F130024D
:103D5000092A08D2401C43E085F8C590EAE700BF75
:103D600085F8C560E6E781F8BC40E3E791F8E60036
:103D7000A0F13002092A01D2401C3EE081F8E64061
:103D8000D8E781F8EE40D5E73924012B0FD0022B7C
:103D90001DD0032B2AD0042BCCD191F8EE00A0F13A
:103DA0003102082AEDD8401E81F8EE00C2E7042A4D
:103DB00009D091F8B400A0F13102082ABFD8401E02
:103DC00081F8B400B6E7BCF1000FB5D0B0E7042A23
:103DD00009D091F8BC00A0F13102082AC3D8401ED6
:103DE00081F8BC00A6E7002FBAD0B5E791F8E6004D
:103DF000A0F13102082AC1D8401E81F8E60099E7F7
:103E00003D488079401EC0B2012B0AD0022B08D059
:103E1000032B01D0042B8DD1002A8BD0032A04D987
:103E200088E7002A86D0042A84D8E271A07126721D
:103E300080E731488079401CC0B2012B08D0022BAA
:103E400006D0032B01D0042B88D1032AEDD371E7D0
:103E5000042AEAD36EE7012B0CD0022B19D0032BD6
:103E600027D0042B34D0052B8AD11820BDE8F04789
:103E700002F064BD0220E0701E480421B43001F05D
:103E8000FBFCC5E91801C5E906012868FDF738F80B
:103E90000DE018480421BC3001F0EEFCC5E91A0120
:103EA000C5E908012868FDF72BF803201DE02671FD
:103EB00040E710480421E63001F0DEFCC5E92001AE
:103EC000C5E91C012868FDF71BF804200DE00EE091
:103ED00008480421EE3001F0CFFCC5E92201C5E914
:103EE0001E012868FDF70CF80520E070DFE71620BA
:103EF000BCE70000F0000020140000202DE9F05F76
:103F0000504D514C0126D5E924929246D5E92637E9
:103F100094F806C0E278D5F800B005EB4C0107280C
:103F20001CD2DFE800F01B0420394C5886003023F7
:103F3000012A09D0022A11D191F8D600A0F130024D
:103F4000092A0DD2401C1AE091F8C600A0F13002F7
:103F5000092A01D2401C1CE081F8C630BDE8F09F60
:103F600081F8D630FAE73923012A0BD0022AF5D19D
:103F700091F8D600A0F13102082AF1D8401E81F84C
:103F8000D600EBE791F8C600A0F13102082AE3D889
:103F9000401E81F8C600E1E72B488079401EC0B280
:103FA000012A01D0022AD9D1BCF1000FD6D0BCF130
:103FB000070FD3D884F807C0A0712672CEE7224835
:103FC0008079401CC0B2012A01D0022AC6D1BCF1BE
:103FD000070FEFD3C2E7012A0FD0022A17D0032A16
:103FE000BCD1C5E90A9AC5E90E375846FCF788FFE7
:103FF0001920BDE8F05F02F0A1BC0220E07011487A
:104000000821C63001F038FCC5E924010FE00D4855
:104010000821D63001F030FCC5E92601D5E924237A
:10402000FCF77CFA01D80720E3E70320E070267153
:1040300094E7C5E90A9AC5E90E375846FCF760FFD0
:104040001720D6E7F00000201400002070B51349B7
:1040500000250122104CD1F8A03007280AD2DFE851
:1040600000F0090A0A09090F1500012B02D1C1F855
:10407000A050227270BD002BF7D1C1F8A020F8E744
:104080008B640868FCF73CFF032000E01820BDE8C3
:10409000704002F053BC000014000020F00000202B
:1040A0002DE9FF47684E0025341D70784FF6FF77E5
:1040B000032850D0DFF89481E07808F5A47698F8CA
:1040C0004C1000285DD022460128127973D00228B6
:1040D00078D003283DD1A246012A3AD1B0463068B3
:1040E000FCF7DDF906460C46D8F80400FCF7D7F9D2
:1040F000DFF85891844609F150094B46D3E90A028A
:10410000CDE90202CDE90064D9E90E23604601F051
:10411000CDFD00287ED0D8E902010622FCF71EFC66
:104120000446D9F8480001287AD049A0009000231D
:104130003A465A215220FCF7C7FF00233A465A213B
:1041400066200094FCF7C0FF204602F051FB8AF87D
:104150000450BDE8FF870020FFF746F83DA000901F
:1041600000233A4614212D20FCF7AEFF3CA000901E
:1041700000233A465A210A20FCF7A6FF7570E57025
:10418000E7E70029E5D002F05BFB3060FCF787F938
:104190000822FCF7E3FB0446009000233A4637214F
:1041A0003C20FCF791FF204602F022FB88F84C509F
:1041B000CFE700E006E0012ACBD12CA000233A464D
:1041C000009024E0A1B102F03BFB7060FCF767F9BE
:1041D0000822FCF7C3FB0646009000233A4637212D
:1041E0003C20FCF771FF304602F002FB88F84C508F
:1041F00020790128ADD11EA0009000233A465A2113
:104200000A20FCF761FF19A000231A4600905A21EA
:10421000822001E012E003E0FCF756FF257198E7E9
:1042200016A0009000233A465A215220FCF74CFF7A
:1042300000235A213A466E20009483E704B00720F9
:10424000BDE8F04702F07ABB10000020A00000207B
:104250006B3D0000B1EAD7BCBCFED0A3D5FD000089
:10426000C9CFCFDED0A3D5FD000000006F6B0000EA
:10427000CFC2CFDED0A3D5FD000000006B3D2D00E6
:1042800038B50D4C6078072815D10020FEF7ACFF3B
:104290000AA0009000231F2214213720FCF714FFEE
:1042A00009A0009000234FF6FF7237212320FCF76E
:1042B0000BFF0020607038BD10000020B4EDCEF37D
:1042C000CCE1CABE00000000D7A2D2E2C9CFCFC263
:1042D000CFDED6B5000000002DE9FF5FFEA0FF4E47
:1042E000006802907078FE4C4FF6FF7801283AD0B3
:1042F00094F84C0050B102F0A3FA054680B2FCF7E6
:10430000BFFAC4E90001002084F84C00D4E90001A0
:10431000D4E90A23FCF7EAF87DD0D4E90001F14A98
:10432000F14BFCF7E3F876D8F0A001F0BFFD294689
:10433000F2A001F0BBFDD4E90023A246F4A001F0F5
:10434000B5FDD4E90A01082201F002FD0190D4E98B
:104350000001082201F0FCFC81464F4600250DF1CA
:10436000080B019E97E00020FEF73EFFEEA00090B4
:1043700000234546424605218720FCF7A5FEEBA019
:10438000009000232A4617217F20FCF79DFEE8A01D
:10439000009000231F2217218720FCF795FEE5A03F
:1043A000009000232A4617219720FCF78DFEE2A0FB
:1043B000009000232A4632211420FCF785FEDAA063
:1043C000009000232A4632218220FCF77DFEDCA0EB
:1043D000009000232A464B211420FCF775FED2A042
:1043E000009000232A464B218220FCF76DFE00201E
:1043F0000822014601F0ACFC0746009000232A4643
:104400000C210F20FCF71AFF384602F0F1F9D4E92D
:104410000201082200E03AE001F09AFC0746009011
:1044200000232A4632213720FCF74EFE384602F0A0
:10443000DFF9D4E90401082201F08AFC0746009064
:1044400000232A464B213720FCF73EFE384602F077
:10445000CFF9BDA000901F232A4670210020FCF751
:1044600033FE9E481F210A38418000217170C4E943
:104470000A110278002A0AD00170B948FEF78AFAB8
:10448000FFF7B8F9FFF7AAF9B548FEF757FABDE804
:10449000FF9F042D12D03878317888420ED08DF8E5
:1044A000080005EB45010F2000EB810000234FF6CB
:1044B000FF720C21CDF800B0FCF7C0FE884C6D1CDB
:1044C000EDB2DFF8A0825034761C7F1C092DE0D3BA
:1044D000484602F08DF9019802F08AF9384602F058
:1044E00087F9304602F084F9D4E9040100224646F7
:1044F0004346FBF7DCFE5546D5E90023FBF7F6FF04
:104500007ED2D4E9040100223346FBF72FFED5E921
:104510000023FCF703F8F3D293A001F0C7FC95E861
:104520000F00FBF7FBFF02D2D5E9001001E0D5E94F
:104530000210C5E90210D5E90001D5E90423FBF713
:10454000EDFF02D2D5E9040101E0D5E90001C5E99A
:104550000401D5E90201D5E90C23FBF7C7FF10D010
:10456000D5E90201082201F0F3FB06460090002382
:104570004FF6FF7232213720FCF7A6FD304602F0DD
:1045800037F9D5E90E23D5E90401AA46FBF7AEFFBA
:1045900010D0DAE90401082201F0DAFB05460090A8
:1045A00000234FF6FF724B213720FCF78DFD284684
:1045B00002F01EF994F8C400714D704E714F01283D
:1045C0002A467DD0D4E906013B46FBF776FE8046BD
:1045D00089462A464FEA0703D4E91C01FBF76DFE22
:1045E000CDE9000194F8C500AB4601282A4668D001
:1045F0004FEA0703D4E90801FBF75FFE054600E038
:104600005BE10E46D4E91E015A463B46FBF755FED8
:1046100083460391D4E9040142464B46FBF7A6FDCD
:104620002F4BD3E90023FBF779FF53D8D4E90401DA
:104630002A463346FBF79AFD294BD3E90023FBF7C3
:1046400055FFF2D850A001F031FC25484EF67D7A96
:1046500050302A46D0E904410F4633462046FBF746
:1046600085FD05460E4642464B4620463946FBF739
:104670007DFD2A463346FBF71AFE194A80468946D5
:1046800028463146D2E9005633462A46FBF712FE49
:1046900042464B46FBF783FEDDE900238146884610
:1046A00020463946FBF762FD33462A46FBF71EFFDC
:1046B00071D30B495A465031D1E90401039B01E003
:1046C0006CE075E0FBF752FD054BD3E90023FBF7E7
:1046D00025FF5FE0BAE05EE030000000100000203F
:1046E000A0000020A323B9FCFF87C340CAFDBEDDA4
:1046F000D3D0B8FCD0C2210D0A000000766F6C74D4
:10470000616765203D202564206D760D0A2000003C
:104710006F7574707574206D61746572203D20250D
:1047200066206D6D0D0A20006D6D00005B000000BD
:104730004E4F00005D0000004D41583A000000005F
:104740004D494E3A0000000020202020202020204B
:10475000204E4F202020202020202020000000007C
:104760004C0000200000F03FBCECB2E2B5BDB2E26C
:10477000CDB7B2E5C8EB210D0A0000004D6250BF75
:10478000FCA9F1D24D62503FB9A4BCFEBACFB8F13A
:10479000210D0A000FD240F23F350EE0D4E90601A8
:1047A0003346FBF78AFD804689462A46334613E79F
:1047B000374633461EE74FF4FC6546A000900023C1
:1047C0002A4617218720FCF77FFC0022424B4846EF
:1047D0004146FBF772FDFBF76FFE86B200223F4BAE
:1047E00048464146FBF769FDFBF766FEC4B23C480C
:1047F000FEF7D0F800221146204601F0CCFF3848E1
:10480000FEF79CF8374C0120207061888A4508D15A
:1048100035A04FF6FF77009053463A467021208925
:1048200007E032A04FF6FF77009053463A467021DA
:104830000020FCF749FC2CA000902B463A46702142
:104840003046FCF741FCE580268125E02DA001F0F3
:104850002DFB4FF01F0AAFF22810009000235246A4
:1048600017218720FCF730FC2AA0009053464FF612
:10487000FF7270210020FCF727FC1A48017859B11B
:10488000002101701648FEF785F8FEF7B3FFFEF72A
:10489000A5FF1348FEF752F81248A0F802A02348DB
:1048A000D0E90212C0E90C12D0E90412C0E90E12DC
:1048B000D0E90012C0E90A12E9E51DA001F0F6FAFC
:1048C00020A000901F234FF6FF7270210020FCF7FC
:1048D000FBFBDCE54F4B000000006440000034406F
:1048E0004C00002006000020200000002020202096
:1048F00020202020202020202020202020202020B8
:1049000020000000B9A4BCFEB2BBBACFB8F1210DA3
:104910000A0000002020202020202020204E4F20B0
:10492000202020202020202020000000A0000020A7
:10493000BCECB2E2B5BDB2E2CDB7B0CEB3F6210D5C
:104940000A00000020202020202020202045525254
:1049500020202020202020202000000038B55E4CA0
:104960004FF6FF7560780A280FD0241D2078A178B3
:1049700088422FD04FF4784301282CD0022837D01A
:1049800003284FD0042843D159E00020FEF72CFC27
:1049900052A0009000232A4619210220FCF74EFC69
:1049A00050A0009000232A4655210220FCF746FC27
:1049B0004EA0009000232A4619216C20FCF73EFCF3
:1049C0004CA0009000232A4655216C20FCF736FCB1
:1049D0000020607038BD41A000902A4619210220B5
:1049E000FCF72CFC45A000232A46192100900BE07F
:1049F0003CA000902A4655210220FCF71FFC3FA056
:104A000000232A46552100905FF03200FCF716FC87
:104A1000A078012821D002282DD003283FD00428D7
:104A20003AD14AE031A000902A4619216C20FCF7C7
:104A300005FC33A000232A46192100900BE02DA08D
:104A400000902A4655216C20FCF7F8FB2CA000238F
:104A50002A46552100905220D8E720A0009000233C
:104A60002A4619210220FCF7E9FB002323A01A465D
:104A7000192100900CE01BA0009000232A4655212C
:104A80000220FCF7DBFB00231CA01A4655210090F6
:104A90005FF03200FCF7D2FB2078A07038BD13A085
:104AA000009000232A4619216C20FCF7C7FB002345
:104AB00013A01A46192100900CE00EA000900023CC
:104AC0002A4655216C20FCF7B9FB00230CA01A469E
:104AD000552100905220DDE710000020B2E2C1BF56
:104AE00000000000C9E8D6C300000000D0A3D5FD37
:104AF00000000000B2E9D1AF00000000A1FB0000FF
:104B0000A1FA000038B51E4C6078042836D1002088
:104B1000FEF76AFB1BA04FF6FF75009000232A46A4
:104B200014213720FCF7D0FA19A0009000232A4660
:104B300037211420FCF7C8FA17A0009000232A465A
:104B400037213C20FCF7C0FA15A0009000232A462C
:104B500055211420FCF7B8FA13A0009000232A4630
:104B600055213C20FCF7B0FA11A0009000232A4602
:104B700055218220FCF7A8FA0020607038BD0000A3
:104B800010000020CAFDBEDDB2E9D1AF0000000078
:104B9000D0F2BAC53A0000003030303100000000D9
:104BA000B8BAB3AC0000000032332E3033313700D6
:104BB0006D6D00002DE9F843274E0027274D7078D2
:104BC000341D4FF6FF78022822D0E078012832D039
:104BD00002281BD12079002818D0288880B2FEF73F
:104BE000F5F9054600900023424632217320FCF778
:104BF0006BFA284601F0FCFD184800215038277157
:104C0000C0E90211174A1649C0E90412BDE8F88349
:104C10000020FEF7E9FA14A000900023424632215A
:104C20002320FCF751FA686828652868E8640120A9
:104C3000E0707770EAE7B5F84C0080B2FEF7C6F98D
:104C40000446024632217320FCF72CFA2046BDE8C8
:104C5000F84301F0CDBD000010000020F00000205E
:104C6000A323B9FCFF87C340D5BEBAC5D1A1D4F1F7
:104C70003A0000002DE9FE4FDFF8F0817C4C002760
:104C800098F8010004F1A40608F1040516281CD0C8
:104C90002846E978007901293ED002293AD1002836
:104CA00038D0D4E90401082201F052F804460090FB
:104CB00000234FF6FF7246213220FCF705FA2F71D0
:104CC0002046BDE8FE4F01F093BD0020FEF78CFAB0
:104CD00068A04FF6FF79009000234A4628211E2045
:104CE000FCF7F2F966A0009000234A4628217820BC
:104CF000FCF7EAF9D4E9040108233246FBF718FF70
:104D0000D4E90401C4E916010120E870AF7188F804
:104D100001702871BDE8FE8F88B1D4E91601082220
:104D200001F016F80446009000234FF6FF7246216A
:104D30003220FCF7C9F9204601F05AFD2F714C488A
:104D40002A7A00F1AE0400F1A60B00F1A80A00F1E6
:104D5000AA0900F1AC08A11CB230CDE901017AB377
:104D6000E87970B1012813D0022819D003281FD088
:104D7000042826D005282CD0062831D0072836D084
:104D80003EE0002346214FF6FF727220009635E088
:104D9000002346214FF6FF726A20CDF800B02DE0C7
:104DA000002346214FF6FF726220CDF800A025E0D7
:104DB000002346214FF6FF725A20CDF800901DE0E7
:104DC0001FE0002346214FF6FF724A20CDF80080F5
:104DD00014E0002346214FF6FF72422000940DE0BC
:104DE0000091002346214FF6FF723A2006E0019819
:104DF000009000234FF6FF7246213220FCF764F941
:104E00002F72A879B0B1012818D002281AD003282F
:104E10001CD004281ED0052820D0062822D0072820
:104E20007FF478AF4621019A322003B0BDE8F04FFD
:104E3000FCF738B9462132467220F6E746215A4639
:104E40006A20F2E7462152466220EEE746214A46B2
:104E50005A20EAE7462142464A20E6E74621224612
:104E60004220E2E746213A20029ADEE710000020C5
:104E7000F0000020B9ABB3C6B3DFB4E70000000018
:104E80006D6D00002DE9FC5FFA4CDFF8E48300262D
:104E900004F1BC0098F8011004F1B40A04F1E60B27
:104EA0004FF6FF7704F1EE0908F104050190172988
:104EB00026D02846EA78037AC079012A7ED029468E
:104EC000022A097977D0032A76D0042A75D0052AD8
:104ED00014D1002912D0D4E92201042200F038FFB5
:104EE0000446009000233A4670214120FCF7ECF87C
:104EF000204601F07DFC2E71AE712E72BDE8FC9F44
:104F00000020FEF771F9DCA0002300904FF6FF723D
:104F100019461E20FCF7D8F894F8C40008B1DAA0AE
:104F200000E0DAA0009000234FF6FF721021372036
:104F3000FCF7CAF8F4E90601042200F009FF07466D
:104F4000009000234FF6FF7210214120FCF7BCF8BF
:104F5000384601F04DFCD4E9000104235246FBF72A
:104F6000E7FDD4E902010423019AFBF7E1FDD4E94E
:104F7000160104235A46FBF7DBFDD4E9180104238C
:104F80004A46FBF7D5FDD4E90001C4E91201D4E992
:104F90000201C4E91401D4E91601C4E91A01D4E9F3
:104FA0001801C4E91C0188F80160AE712E7201205D
:104FB000E870A3E702E05DE0FEE0AEE1AB46AD4D98
:104FC00005F1B60905F1B808BA359BB340B101281F
:104FD0000DD0022812D0032817D004281BD027E0B8
:104FE000002310213A466120CDF800A01EE00023E6
:104FF00010213A465120CDF8009017E000231021EF
:105000003A464920CDF8008010E0002310213A46AE
:10501000412000950AE094F8C40008B19AA000E08D
:105020009AA0009000233A4610213720FCF74CF854
:105030008BF808609BF8060060B101280DD00228AB
:105040000ED003280FD00428B3D194F8C40068B15F
:105050008DA20CE05246102199E04A4610219AE0B8
:10506000424610219BE02A4610219CE087A2102195
:10507000372099E0A846C1B3D4E91801042200F012
:1050800067FE0546009000233A4610214120FCF7B8
:105090001BF87FA0009000233A4620211E20FCF739
:1050A00013F894F8C50008B177A000E077A000904D
:1050B00000233A4630213720FCF706F8284601F055
:1050C00097FBD4E91A01042200F042FE0546009045
:1050D00000233A4630214120FBF7F6FF284601F035
:1050E00087FB88F8046088F806606248454698F8AF
:1050F000081000F1BE0A00F1C00900F1C208A1B316
:10510000E87940B101280DD0022812D0032817D029
:1051100004281CD028E001980023302100903A4652
:1051200061201FE0002330213A465120CDF800A035
:1051300018E0002330213A464920CDF8009011E0D4
:10514000002330213A464120CDF800800AE094F84F
:10515000C50008B14CA000E04CA0009000233A46E6
:1051600030213720FBF7B0FF2E72A87968B10128F3
:105170000FD0022811D0032813D004287FF419AFD0
:1051800094F8C500A8B140A214E0019A3021612032
:105190000AE052463021512006E04A46302149209B
:1051A00002E042463021412002B0BDE8F05FFBF74B
:1051B00079BF36A230215BE7F1B3D4E91A010422AA
:1051C00000F0C6FD8046009000233A463021412081
:1051D000FBF77AFF94F8C50008B12BA000E02BA0E4
:1051E000009000233A4630213720FBF76DFF404600
:1051F00001F0FEFA2AA0009000233A4640211E202A
:10520000FBF762FF94F8C40008B11FA000E01FA0E4
:10521000009000233A4650213720FBF755FF4046C7
:1052200001F0E6FAD4E92001042200F091FD002308
:1052300004463A46502100E00AE000904120FBF786
:1052400043FF204601F0D4FA2E71AE712E725BE05E
:10525000084CA94604F1E80804F1EA05EC343BB334
:1052600038B301282DD0022832D0032836D03CE0B4
:1052700010000020F0000020B3ACB2EEC9CFCFDEAA
:1052800020A6CC6D000000002D0000002B000000C7
:10529000B3ACB2EECFC2CFDE20A6CC6D00000000D2
:1052A000D4A4BEAFC9CFCFDE20A6CC6D00000000D5
:1052B0001DE0FFE7002350213A466120CDF800B001
:1052C00011E0002350213A465120CDF800800AE039
:1052D000002350213A464920009504E000233A4635
:1052E000502141200094FBF7EFFE89F8086099F8FF
:1052F000060048B101280AD002280BD003287FF409
:1053000058AE224650214EE75A4650213FE74246CA
:10531000502140E72A46502141E7D1B3D4E920018A
:10532000042200F015FD8046009000233A465021EB
:105330004120FBF7C9FE39A0009000233A466021C6
:105340001E20FBF7C1FE94F8C50010B1AFF2C800F3
:1053500001E0AFF2C800009000233A4670213720E8
:10536000FBF7B2FE404601F043FAD4E922010422E1
:1053700000F0EEFC0446009000233A4670214120E4
:10538000FBF7A2FE204601F033FA2E71AE712E72A9
:105390003AE0FFE7254CAA4604F1F00804F1F205D3
:1053A000F43423B330B101280BD0022810D00328E5
:1053B00014D01AE0002370213A466120CDF8009005
:1053C00011E0002370213A465120CDF800800AE018
:1053D000002370213A464920009504E000233A4614
:1053E000702141200094FBF76FFE8AF808609AF85C
:1053F000060048B101280AD002280BD003287FF408
:10540000D8AD22467021CEE64A467021BFE642461C
:105410007021C0E62A467021C1E60000D4A4BEAFC8
:10542000CFC2CFDE20A6CC6D00000000F00000202F
:105430002DE9FE4FDFF874A3DD4D00269AF8010038
:1054400005F1C60805F1D6070AF10409182820D08D
:1054500099F803004C46012857D04946022809799B
:1054600074D003284FD100294DD0D5E92601082258
:1054700000F06EFC0546009000234FF6FF725F219E
:105480003220FBF721FE26712846BDE8FE4F01F0D1
:10549000AFB90020FDF7A8FEC6A04FF6FF7B142190
:1054A000009000235A460846FBF70EFEF5E90A0174
:1054B000082200F04DFC0446009000235A462D219E
:1054C0003220FBF701FE204601F092F9D5E90001F8
:1054D00008234246FBF72CFBD5E9040108233A4692
:1054E000FBF726FBD5E90001C5E91A01D5E904015E
:1054F000C5E91C018AF8016089F8066089F808602E
:10550000012189F80310BDE8FE8FA948227A00F135
:10551000C8010291891C8F1C0D1D00F1D00B00F1F8
:10552000D20A00F1D409019182B3E07978B101285F
:1055300015D002281BD0032821D0042827D0052805
:105540002CD0062832D0072838D040E068E000236D
:105550002D214FF6FF727220CDF8008035E00298C1
:1055600000232D2100904FF6FF726A202DE0019854
:1055700000232D2100904FF6FF72622025E00023CA
:105580002D214FF6FF725A2000971EE020E00023E5
:105590002D214FF6FF724A20009516E000232D21A1
:1055A0004FF6FF724220CDF800B00EE000232D210F
:1055B0004FF6FF723A20CDF800A006E000234FF628
:1055C000FF722D213220CDF80090FBF77DFD267271
:1055D000A07980B1012811D0022812D0032813D05D
:1055E000042814D0052815D0062816D007288AD1FB
:1055F0004A462D21B7E042462D21BCE02D21029ADA
:10560000BDE02D21019ABEE03A462D21BFE02A4699
:105610002D21C0E05A462D21C1E052462D21C2E085
:1056200061B3D5E92401A846082200F091FB0546A4
:105630004FF6FF79009000234A462D213220FBF7D8
:1056400043FD60A0009000234A4646211420FBF74A
:105650003BFD284601F0CCF8D8E92601082200F0ED
:1056600077FB0546009000234A465F213220FBF776
:105670002BFD284601F0BCF82671A6714C48227A11
:1056800000F1E00500F1D80900F1DA0800F1DC0BC7
:1056900000F1DE0AA91CE430CDE901017AB3E0791A
:1056A00070B1012813D0022819D003281FD0042874
:1056B00026D005282CD0062831D0072836D03EE049
:1056C00000235F214FF6FF727220009735E0002320
:1056D0005F214FF6FF726A20CDF800902DE0002385
:1056E0005F214FF6FF726220CDF8008025E0002395
:1056F0005F214FF6FF725A20CDF800B01DE01FE089
:1057000000235F214FF6FF724A20CDF800A014E07D
:1057100000235F214FF6FF72422000950DE00091BB
:1057200000235F214FF6FF723A2006E001980090B7
:1057300000234FF6FF725F213220FBF7C5FC267273
:10574000A079B0B1012818D002281AD003281CD0A3
:1057500004281ED0052820D0062822D007287FF450
:10576000D2AE019A5F21322003B0BDE8F04FFBF7C3
:1057700099BC3A465F217220F6E74A465F216A20CB
:10578000F2E742465F216220EEE75A465F215A2047
:10579000EAE752465F214A20E6E72A465F21422097
:1057A000E2E7029A5F213A20DEE7000010000020C5
:1057B000F0000020C9CFCFDEB1EAD7BCBCFED6B521
:1057C000206D6D00CFC2CFDEB1EAD7BCBCFED6B52E
:1057D000206D6D002DE9F8431E4F00263C1D7878A2
:1057E0001D4D4FF6FF78192812D0207A00280DD0D1
:1057F0002672D5F8A00058B3012807D117A0009051
:105800000023424632215F20FBF75EFCBDE8F883AF
:105810000020FDF7E9FC13A000900023424632214E
:105820001420FBF751FC7E70A86CC5F8A00010B1E5
:10583000012802D009E00EA000E008A0009000239B
:10584000424632215F20FBF73FFC01202072DDE75A
:1058500007A0D4E710000020F0000020CDE2B3DF65
:10586000B4E70000B2E2C1BFC4A3CABD3A00000061
:10587000C4DAB3DFB4E700002DE9F041504EDFF8A1
:1058800044810446082905D0042968D00020014637
:10589000BDE8F081A07B4FF47A7130384843FAF7C5
:1058A000EDFD00221346FAF761FC0746207B0D460A
:1058B000642130384843FAF7E1FD3A462B46FAF7BF
:1058C00055FC0746A07A0D46303800EB80004000BA
:1058D000FAF7D4FD3A462B46FAF748FC0746207AF9
:1058E0000D463038FAF7CAFD3A462B46FAF73EFC29
:1058F0000746A0790D463038FAF7C0FD32464346D8
:10590000FAF7DBFC3A462B46FAF730FC06462079DC
:105910000D463038FAF7B2FD2B4A2C4BFAF7CDFC86
:1059200032462B46FAF722FC0646A0780D46303860
:10593000FAF7A4FD264A274BFAF7BFFC32462B465E
:10594000FAF714FC054620780E463038FAF796FD33
:10595000214A224BFAF7B1FC2A4633462CE0A079C3
:10596000642130384843FAF789FD00221346FAF7DC
:10597000FDFB074620790D46303800EB80004000E3
:10598000FAF77CFD3A462B46FAF7F0FB0746A0787B
:105990000D463038FAF772FD3A462B46FAF7E6FB29
:1059A000074620780D463038FAF768FD3246434600
:1059B000FAF783FC3A462B46BDE8F041FAF7D6BB2E
:1059C0009A9999999999B93F7B14AE47E17A843FA6
:1059D000FCA9F1D24D62503F2D431CEBE2361A3F39
:1059E000FCF78EBB30B593B028216846FAF7B3FBBD
:1059F00014210AA8FAF7AFFB002401200F94109499
:105A00001194010412948DE8130004904FF4E010F7
:105A1000CDE90810022507956846FCF76BFD0F20BD
:105A2000CDE90A056802CDE90C4002210AA80E94CE
:105A3000FCF774FCA80311900F950FA8FCF7F8FB76
:105A400013B030BD704700000148FDF727B80000D3
:105A50004C000020F0B50268164B174C174D4FF064
:105A60008047984205D0B84203D0A04201D0A84256
:105A700003D122F070064A683243984205D0B842FA
:105A800003D0A04201D0A84203D122F44074CA68D6
:105A900022434C6922F08002224302608A68C2627B
:105AA0000A688262984201D109690163012141615A
:105AB000F0BD0000002C0140000400400008004040
:105AC00010B5846842EA032224F47F440A43224347
:105AD000826010BD826822F070020A4342F0070122
